:020000040800F2
:10000000002000208D10000845080008470800085F
:1000100000000000000000000000000000000000E0
:100020000000000000000000000000004908000877
:1000300000000000000000004B0800084D08000808
:10004000DD100008DD100008DD100008DD100008DC
:10005000DD100008DD100008DD100008DD100008CC
:10006000DD100008DD100008DD100008DD100008BC
:10007000DD100008DD100008DD100008DD100008AC
:10008000DD100008DD10000800000000DD10000891
:10009000DD100008DD100008DD100008DD1000088C
:1000A000DD100008DD100008DD100008DD1000087C
:1000B000DD10000800000000DD1000080000000056
:1000C00010B5064C2378002B07D1054B002B02D02E
:1000D000044800E000BF0123237010BD1000002081
:1000E0000000000038110008044B10B5002B03D0AD
:1000F0000349044800E000BF10BDC04600000000F6
:100100001400002038110008002243088B4274D3E9
:1001100003098B425FD3030A8B4244D3030B8B4208
:1001200028D3030C8B420DD3FF22090212BA030C11
:100130008B4202D31212090265D0030B8B4219D3F2
:1001400000E0090AC30B8B4201D3CB03C01A524112
:10015000830B8B4201D38B03C01A5241430B8B425A
:1001600001D34B03C01A5241030B8B4201D30B0343
:10017000C01A5241C30A8B4201D3CB02C01A52416A
:10018000830A8B4201D38B02C01A5241430A8B422D
:1001900001D34B02C01A5241030A8B4201D30B0216
:1001A000C01A5241CDD2C3098B4201D3CB01C01A30
:1001B000524183098B4201D38B01C01A524143093A
:1001C0008B4201D34B01C01A524103098B4201D328
:1001D0000B01C01A5241C3088B4201D3CB00C01A95
:1001E000524183088B4201D38B00C01A524143080D
:1001F0008B4201D34B00C01A5241411A00D2014632
:10020000524110467047FFE701B5002000F006F8A4
:1002100002BDC0460029F7D076E770477047C04658
:10022000002B15D1002A13D1002906DB01DC0028A0
:1002300006D00020C043410802E0802109060020CA
:1002400007B4024801A14018029003BDD1FFFFFF8F
:1002500003B4684601B5029800F034F8019B9E464D
:1002600002B00CBC7047C046F0B5CE469946030CB0
:100270009C46130447461B0C1D000E0061460404F7
:10028000240C80B50700100C4B4365434143604389
:100290002C0CC01824188C46A34203D980235B027F
:1002A0009846C444494679435643230C2D042D0CEB
:1002B0008919634424046019C918C0BCB946B04602
:1002C000F0BDC046F8B5CE46474680B59146984643
:1002D00004000D0000F03EF807000E0002000B00C5
:1002E00048464146FFF7C0FF241A8D41089B38005D
:1002F00031001C605D60C0BCB946B046F8BDC04668
:100300001C2101231B04984201D3000C10391B0A45
:10031000984201D3000A08391B09984201D3000909
:10032000043902A2105C40187047C0460403020260
:1003300001010101000000000000000010B50029CB
:1003400003D1FFF7DDFF203002E00800FFF7D8FF00
:1003500010BDC046F0B54F464646D646C0B506006D
:100360000F001000190082B0002F5DDB34003D004B
:10037000002B0BDB16001F00AB4217D90020002119
:1003800002B0E0BCBA46B146A846F0BD00274642DE
:100390008F41AF42F2D800D1A0E001235B429946E1
:1003A00009E0002746428F41AF42E7D8AF4200D173
:1003B00090E00023994639003000FFF7BFFF8046E8
:1003C00029002000FFF7BAFF43461B1A9846203B3E
:1003D00075D4310099409A460B0031004046814067
:1003E0000A00AB422ED82BD05146A41A9D410029B9
:1003F00000DA90E000210020012600900191514692
:100400008E400196414601268E40414600960029C5
:100410001FD1009801994B46002BB1D003000C006E
:1004200000215842A141ABE700257442BD41002B99
:10043000B7DB16001F00AB42A0D8AF42ADD14DE0F4
:10044000A142D1D90021002000900191414600290C
:10045000DFD0D90756085F080E4343460EE0AF428F
:1004600001D1A6420CD8A41BBD41012124196D4124
:100470000022013B64185541002B06D0AF42EED953
:10048000013B24196D41002BF8D1009A019B514684
:1004900012196B41002925DB2E002C00CE4041466D
:1004A000CC40514600292DDB34008C4021004446CD
:1004B000A6403000121A8B4100920193A9E74246F0
:1004C00038009A462023310090409B1AD9400300FF
:1004D0000B4382E7A64200D950E76AE7A64200D85C
:1004E0005BE74BE740462021091A28008840260098
:1004F00001004046C6402C000E434146CC405146C8
:100500000029D1DA4046202135008440091ACD4027
:1005100021002943CBE7414620260127761A0020F7
:100520000021F7400090019101976BE770B510260C
:1005300090B02C22002105A800F0D1FD320000214E
:10054000684600F0CCFDA023022401259B0304A8EB
:100550000494079508960C940E9300F093F90028E4
:1005600001D072B6FEE70723029003902900684687
:100570000093019400F0AAFB002801D072B6FEE7B8
:1005800010B070BDF0B54310A7B024934B10049386
:10059000CB170593002300241A93002380260027FD
:1005A0001C931D940F900E91259236051A9B0E9A5E
:1005B000934200DBD1E0249B0C93DB170D930023C7
:1005C0001B9360E00F9B0F9ADB170C980D99FFF7B8
:1005D00027FEE02200239205FFF746FE80197941AD
:1005E0000B01020F1A4310920B170122D82111930D
:1005F00009065242109B119C5B18544104980599BE
:10060000209321940E9B0E9ADB17FFF709FEC30877
:100610004A071A43430713921293129A139B921993
:100620007B4119011B17100F1593F022012308437A
:100630005B42149012060024149815990025801826
:1006400059410023229023910A940B950193019B19
:10065000259A934228DB019B1E93DB171F931E995B
:100660001F9A1C9B1D9C5B1854410C980D991C9360
:100670001D941B9B802201331B930023520580187D
:1006800059410C900D911B9B0F9A93429ADB049851
:1006900005991A9B802201331A9300235205801872
:1006A00059410490059181E70A9A0B9B10001900AB
:1006B000FFF7DAFD22002B000690079120002900A9
:1006C000FFF7D2FD069A079B0890099108980999AF
:1006D00012184B418021C9048B42BCDC01D1002A95
:1006E000B9D10A980B9922002B00FFF7BDFD8019A4
:1006F00079410B01020F1A430B1702920393069ADA
:10070000079B92197B41029C039D19011B17100F37
:100710001793089A099B92197B4108431690190177
:10072000100F08431B171993189018981999169AC7
:10073000179B121A8B412098219980185941220049
:100740002B00A4185D41229A239BA4185D41019BB4
:100750000A900B910133019379E71C981D9927B0FA
:10076000F0BD000030B58BB000F074FB304D0124BB
:10077000286000F053FBFFF7D9FE1422002105A8E2
:1007800000F0ADFC80212B4BC9035A692A480A436B
:100790005A615A690A4080210292029A5A69C90232
:1007A0000A435A615A690A4080210392039A5A699E
:1007B00089020A435A615B6900220B400493FF21BE
:1007C000049B00F017FCFF23059300231A4805A99A
:1007D00006940793089300F055FB22002100164869
:1007E00000F008FC80226B465200DA809A82D8889A
:1007F000998A9C3A80B289B2FFF7C4FE0B000200CE
:100800000E490D480A604B602200022100F0F2FB05
:10081000FA20C00000F024FB00220321064800F06B
:10082000E9FB00F017FB2B68C01A054B1860D4E7F2
:100830003000002000100240000400483800002072
:100840002C000020FEE7FEE77047704710B500F06F
:10085000F5FA10BD01210A4B82B09A690A439A61E8
:100860009A690A4080210092009ADA6949050A4390
:10087000DA61DB690B400193019B02B07047C0460F
:1008800000100240F0B5040085B0002845D0036890
:10089000DB072FD423689B0700D581E023681B0763
:1008A00000D5BCE023685B0700D5DFE02368DB06EA
:1008B0001AD562690423B44D012A00D048E1696B5E
:1008C00002270B436B636B6B1A436A6300F0C2FA37
:1008D00006006B6B3B4200D133E1F8216A6BA369E0
:1008E0008A43DB0013436B63236A002B00D057E17C
:1008F00000202AE00C22A44D6B681340042B06D084
:100900006B681340082B0AD16B68DB0307D52B6893
:100910009B03BFD56368002BBCD1012015E0636841
:10092000012B14D180232A685B0213432B6000F053
:1009300091FA80270600BF022B683B42AAD100F043
:1009400089FA801B6428F7D9032005B0F0BD002B7D
:1009500016D12B688D4A802713402B602B688C4A58
:10096000BF0213402B6000F075FA06002B683B4273
:1009700000D18FE700F06EFA801B6428F6D9E3E718
:10098000052B05D180232A68DB0213432B60C9E7BE
:100990002B687E4A13402B602B687D4A1340C5E7C5
:1009A0000C22794D6B68134206D06B681340082BFC
:1009B00010D16B68DB030DD42B689B0702D5E3686D
:1009C000012BAAD1F8212A6823698A43DB0013434B
:1009D0002B6063E7E2680123002A0FD02A68022710
:1009E00013432B6000F036FA06002B683B42E9D136
:1009F00000F030FA801B0228F7D9A5E72A68022701
:100A00009A432A6000F026FA06002B683B4200D188
:100A100044E700F01FFA801B0228F6D994E7E26948
:100A20000123594D002A10D06A6A022713436B62D2
:100A300000F010FA06006B6A3B4200D032E700F08B
:100A400009FA801B0228F6D97EE76A6A02279A43D0
:100A50006A6200F0FFF906006B6A3B4200D121E7B1
:100A600000F0F8F9801B0228F6D96DE780220021FA
:100A7000454D5205EB690091134208D1EB691343D0
:100A8000EB61EB6913400393039B012300938027E1
:100A9000404E7F0033683B4215D0A368012B22D122
:100AA0002A6A13432B6200F0D5F9022706002B6A4D
:100AB0003B423FD0009B012B00D0F7E6EB69364A62
:100AC0001340EB61F2E633683B43336000F0C2F958
:100AD000019033683B42E0D100F0BCF9019BC01AA1
:100AE0006428F6D930E70122002B14D12B6A0227A3
:100AF00093432B622B6A033293432B6200F0AAF9D3
:100B000006002B6A3B42D5D000F0A4F9234B801B92
:100B10009842F6D918E7052B05D1296A013B0B430A
:100B20002B622B6ABDE72B6A934304222B622B6A4C
:100B30009343B7E700F08EF9184B801B9842B6D963
:100B400002E700F087F9801B022800D8C1E6FBE627
:100B5000053203D16A6B9A436A63BEE66A6B022769
:100B6000134301226B636B6B93436B6300F072F969
:100B700006006B6B3B4200D1B6E600F06BF9801BC0
:100B80000228F6D9E0E6C04600100240FFFFFEFF53
:100B9000FFFFFBFF00700040FFFFFFEF8813000026
:100BA0000C21344D6A680A40082A47D0324A022B89
:100BB00032D12B68802713402B6000F04BF90600E0
:100BC000BF042B683B4221D10F22EB6A802693435E
:100BD000E26AB6041343EB62616AA36A6A680B4374
:100BE00026490A4013436B6080232A685B04134341
:100BF0002B6000F02FF904002B68334200D077E619
:100C000000F028F9001B0228F6D99DE600F022F931
:100C1000801B0228D5D997E62B68802613402B60CD
:100C200000F018F90400B6042B68334200D15FE6E7
:100C300000F010F9001B0228F6D985E6012B00D13F
:100C40006BE680226868616A5202EB6A02408A425F
:100C500000D062E60F221340E26A934200D05CE6C5
:100C6000F0239B031840A36AC01A431E9841C0B2E8
:100C70006BE6C04600100240FFFFFFFEFFFFC2FF11
:100C80000C2270B50C4D6B681A40082A11D10F2048
:100C90000A499A0C02408C5CEA6ADB0307D50849D2
:100CA0000240895C0748FFF72FFA604370BD064891
:100CB000FBE70448FAE7C046001002406011000854
:100CC0005011000800127A0000093D00F7B5040039
:100CD0000E00002801D10120FEBD0122374D2B68F6
:100CE00013408B421CD32268930722D4D2072FD4FF
:100CF00001232A681A40B24251D82368304D5B075D
:100D000054D4FFF7BDFF6B682E4A1B061B0FD35C44
:100D10002D49D8400860032000F05CF80020DBE794
:100D20002B6893430B432B602B6813408B42D2D12B
:100D3000D9E72349530704D5E0234868DB00034380
:100D40004B60F0204B688343A06803434B60CDE7C2
:100D50001B4F62683B68012A19D19B03BBD5032155
:100D60007B688B4313437B6000F074F801900C2385
:100D70007A681A4063689B009A42B9D000F06AF81A
:100D8000019BC01A114B9842F1D90320A4E7022A13
:100D900002D19B01E3D49EE79B07E0D49BE72A683E
:100DA0009A432A602A681A42A7D094E76B68084AD7
:100DB0001340E26813436B60A3E7C0460020024083
:100DC0000010024070110008080000208813000085
:100DD000FFF8FFFF70B50500FA200D4B8000197871
:100DE000FFF792F90B4C01002068FFF78DF900F036
:100DF00031F904000120002C09D1032D07D8023855
:100E00002200290000F0FCF82000034B1D6070BD9B
:100E10000000002008000020040000201023064AE3
:100E200010B5116803200B431360FFF7D3FFFFF7E2
:100E300011FD002010BDC04600200240034A044BB3
:100E400011681B785B1813607047C0464000002093
:100E500000000020014B18687047C0464000002089
:100E600070B50400FFF7F6FF0500631C02D0044BC9
:100E70001B78E418FFF7EEFF401BA042FAD370BDC9
:100E8000000000200023F0B587B00A681400DC40A1
:100E900001D107B0F0BD012514009D402C40009405
:100EA0002A4200D198E04A685F00944603226446D3
:100EB00022400324BC40E4430194541E012C2ED84C
:100EC0008668019C2640CC68BC40344384604468FA
:100ED0000126AC4325006446240934409C402C4341
:100EE0004460C568019C25408C68BC402C43C460AC
:100EF000022A16D107250F261D40AD00AE40DC08A2
:100F0000A40004190294246A03962600039CA643B5
:100F100034000E69AE402643029C266201E0032A9B
:100F2000DFD1BA400468019D25402A43C0240260F5
:100F30006246A40222424FD00125284A9027946994
:100F4000FF052C43946192699C082A400592059AFA
:100F5000234AA400A4180F2202351D40AD00AA4068
:100F6000A66896430022B8420CD01E4F0132B84208
:100F700008D01D4F0132B84204D01C4F0332B84292
:100F800000D1023AAA4067463243A260184A009C48
:100F90009668009DE4433543FF0201D435002540A7
:100FA00067469560D668009D3543BF0201D4350081
:100FB00025406746D5605668009D3543BF0301D480
:100FC00035002540674655601568009E2E43FF0397
:100FD00001D425402E001660013356E70010024070
:100FE000000001400004004800080048000C0048D0
:100FF00000040140002A01D0816170478162FCE752
:1010000010B5FF2403220B0021000240D2009140C2
:101010009B012340C943934000280ADBC0240B4AAC
:10102000800880008018A40002590A40134303512D
:1010300010BD0F2210400838054A80088000801833
:10104000C26911401943C161F2E7C04600E100E006
:1010500000ED00E08022431E5204012093420DD295
:10106000C021074A07485360036A09061B021B0A8E
:101070000B43036200200723906013607047C04653
:1010800010E000E000ED00E0704700000D488546EC
:10109000FFF7FAFF0C480D490D4A002302E0D4582F
:1010A000C4500433C4188C42F9D30A4A0A4C0023B2
:1010B00001E013600432A242FBD300F019F8FFF7FD
:1010C00051FBFEE700200020000000200C00002063
:1010D000901100081000002044000020FEE70300EB
:1010E0008218934200D1704719700133F9E700006C
:1010F00070B500260C4C0D4D641BA410A64209D1FE
:10110000002600F019F80A4C0A4D641BA410A642F0
:1011100005D170BDB300EB5898470136EEE7B30038
:10112000EB5898470136F2E788110008881100084B
:101130008C11000888110008F8B5C046F8BC08BC3E
:101140009E467047F8B5C046F8BC08BC9E4670473E
:101150000102030405060708090A0B0C0D0E0F1007
:1011600002030405060708090A0B0C0D0E0F1010E8
:101170000000000000000000010203040607080947
:08118000D4F1FF7F0100000023
:04118800E900000872
:04118C00C100000896
:0C119000010000000400000000127A00C2
:040000050800108D52
:00000001FF
